:020000040800F2
:10000000E80C002089010008572D0008232500086E
:10001000552D0008D5050008253500080000000012
:100020000000000000000000000000003F32000857
:1000300059070008000000003D3200084132000866
:10004000A3010008A3010008A3010008A301000800
:10005000A3010008A3010008A3010008A3010008F0
:10006000A3010008A3010008A3010008D9050008A6
:10007000A3010008A3010008A3010008A3010008D0
:10008000A3010008A3010008A3010008A3010008C0
:10009000A3010008A3010008A3010008A3010008B0
:1000A000A3010008C1320008A3010008A301000851
:1000B000A3010008A3010008A3010008A301000890
:1000C000A3010008A3010008A3010008A301000880
:1000D000A3010008A3010008A3010008A301000870
:1000E000A3010008A3010008A301000800F002F822
:1000F00000F03AF80AA090E8000C82448344AAF188
:100100000107DA4501D100F02FF8AFF2090EBAE885
:100110000F0013F0010F18BFFB1A43F0010318473B
:10012000C0920000E0920000103A24BF78C878C165
:10013000FAD8520724BF30C830C144BF04680C60ED
:10014000704700000023002400250026103A28BF35
:1001500078C1FBD8520728BF30C148BF0B60704739
:100160001FB51FBD10B510BD00F05CF91146FFF7BB
:10017000F7FF04F0C9FC00F07AF903B4FFF7F2FFCF
:1001800003BC00F07DF9000009488047094800479A
:10019000FEE7FEE7FEE7FEE7FEE7FEE7FEE7FEE737
:1001A000FEE7FEE704480549054A064B7047000094
:1001B000BD320008ED000008E8060020E80C002031
:1001C000E8080020E808002010B54C1084EA530429
:1001D00004D54042C1F1000138BF491E1B4204D57D
:1001E0005242C3F1000338BF5B1E00F06FF814F0F9
:1001F000804F04D04042C1F1000138BF491E14F0C5
:10020000004F04D05242C3F1000338BF5B1E10BD43
:1002100040EA010310B59B070FD1042A0DD310C883
:1002200008C9121F9C42F8D020BA19BA884201D9D5
:10023000012010BD4FF0FF3010BD1AB1D30703D01D
:10024000521C07E0002010BD10F8013B11F8014BD3
:100250001B1B07D110F8013B11F8014B1B1B01D1EF
:10026000921EF1D1184610BD02F0FF0343EA0322AB
:1002700042EA024200F0AEB84FF0000200B5134669
:1002800094469646203922BFA0E80C50A0E80C50B6
:10029000B1F12001BFF4F7AF090728BFA0E80C5067
:1002A00048BF0CC05DF804EB890028BF40F8042B60
:1002B00008BF704748BF20F8022B11F0804F18BFCD
:1002C00000F8012B704770477047704753EA020CE3
:1002D00000F069802DE9F04B4FF00006002B1FBFA6
:1002E000B3FA83F503FA05F424FA05F65E4012BF6B
:1002F0001643B2FA82F502FA05F4C5F120051EBFD5
:1003000022FA05FC44EA0C04203556EA044C4FEA74
:10031000144418BF641C4FF000084FF000099042CD
:1003200071EB030C39D3002919BFB1FA81F701FA37
:1003300007F6B0FA80F700FA07F6C7F120071EBFEC
:1003400020FA07FC46EA0C062037B6FBF4FCA7EBC4
:100350000507103F07F01F0BCBF120060CFA0BFB33
:100360002CFA06F644BFB3460026202FA4BF5E46F3
:100370004FF0000B5BEA060C08BF4FF0010B19EBC6
:100380000B09ABFB027C48EB0608C01B06FB02CC4A
:100390000BFB03CC71EB0C01C1E70B460246414657
:1003A0004846BDE8F08B13B54FF000004FF0000158
:1003B000AFF30080BDE81C40704710B500F02AF88C
:1003C000006810BD10B5044600F024F8046010BDAC
:1003D0004FF000020429C0F0128010F0030C3FF42B
:1003E0004DAFCCF1040CBCF1020F18BF00F8012B8B
:1003F000A8BF20F8022BA1EB0C01FFF73FBF5FEA7B
:10040000C17C24BF00F8012B00F8012B48BF00F885
:10041000012B70470048704788060020004870474D
:10042000880600207546FFF7F9FFAE4605006946CD
:10043000534620F00700854618B020B5FFF7B2FEFE
:10044000BDE820404FF000064FF000074FF00008D5
:100450004FF0000B21F00701AC46ACE8C009ACE856
:10046000C009ACE8C009ACE8C0098D46704710B5BA
:100470000446AFF300802046BDE81040FFF77DBE84
:1004800001491820ABBEFEE72600020070470000BD
:1004900070B5044600688168C943C90717D18168EF
:1004A00021F00101816000F0E7FE05460AE000BF8F
:1004B00000F0E2FE401B022804D920688068C04397
:1004C000C00706D020688068C043C007F0D0002075
:1004D00070BDA06A40F01000A062E06A40F0010028
:1004E000E062012070BD10B50146406A826A12F0D8
:1004F000500F05D0006A026BBDE810400846104757
:10050000816A41F40071816201688968C1F34241E6
:1005100007290CD1017B51B9816A21F48071816274
:10052000816AC90403D4816A41F00101816200F04B
:1005300001FA10BD10B5406A816A41F04001816244
:10054000C16A41F00401C16200F0F6F910BD10B5B6
:10055000406A00F0F0F910BDF8B500260446009698
:1005600000688168C943C9072DD0816841F0010145
:100570008160164816490068B0FBF1F000E0401EAB
:1005800000900028FBD100F077FE054616E000BF82
:1005900000F072FE401B022810D920688068C0431A
:1005A000C0070BD0A06A40F01000A062E06A40F0E3
:1005B0000100E06284F824600120F8BD20688068B2
:1005C000C043C007E4D10020F8BD0000980000201F
:1005D00040420F00FEE70000014800F02DBC000083
:1005E000640500202DE9F05FDFF8B8800025A8F150
:1005F000100A6FF00B0B42F210792A482A4C08308F
:1006000080210278204600F031FE26484021143037
:100610000278204600F02AFE22482021203002786D
:10062000204600F023FE1F4810212C30027820467F
:1006300000F01CFE322003F059FB042219491B482C
:1006400000F074FB322003F051FB1948002400EB4A
:10065000C50700BF1AF8046038F8140006F02EF938
:10066000594606F0E0FA05F07FFF4FF06632114B75
:1006700005F0A0FC0022104B05F09CFC05F05AFC94
:1006800081B2B1FBF9F209FB1210641CE4B227F845
:100690001600042CDED36D1CEDB20C2DADD3BDE8DD
:1006A000F09F0000500000200008014004050020D9
:1006B000A404002066660A4000408F4030B590F8E0
:1006C00040500124AC40C56B6C60046863604368B3
:1006D000102B036803D099600068C26030BD9A6037
:1006E0000068C16030BD00002DE9F041164817498F
:1006F00001230088020A0A7048700222144801F09F
:10070000B7FE124901230322091D114801F0B0FE72
:100710000E4F00250F4EBF1C5FF0000406EBC40017
:100720000A4910F81500387001230222891C084874
:1007300001F09EFE641CE4B20C2CEFD36D1CEDB2F4
:10074000042DE9D3BDE8F0818800002039000020A5
:1007500044060020A4040020704772B6FEE70000A3
:10076000F8B500250446009590F82400012808D02B
:10077000012084F824002046FFF78AFE060002D0FC
:1007800053E00220F8BDA06A20F4885040F0020037
:10079000A062022001F0C2F826490968B1FBF0F01E
:1007A000400000E0401E00900028FBD12046FFF7EB
:1007B000D3FE2068816841F00801816000F05CFD93
:1007C000074608E000F058FDC01B0A2803D920683E
:1007D0008068000715D4206880680007F2D420687C
:1007E000816841F00401816000F046FD074612E097
:1007F00000F042FDC01B0A280DD920688068400720
:1008000009D5A06A20F0020040F01000A06284F830
:1008100024500120F8BD206880684007E8D4A06A11
:1008200020F0020040F00100A06284F8245030461D
:10083000F8BD000098000020F8B50024009490F85E
:1008400024202546012A12D0012280F824204A685B
:100850001F23072A0DD20668776B521E02EB820215
:1008600093409F430B6893401F43776319E0022036
:10087000F8BD06680D2A0AD2376BD21F02EB82023E
:1008800093409F430B6893401F43376309E0F76A27
:100890000D3A02EB820293409F430B6893401F4343
:1008A000F7620A68072306680A2A0AD3F7680A3A31
:1008B00002EB420293409F438B6893401F43F760D3
:1008C00008E0376902EB420293409F438B689340F4
:1008D0001F4337610A68102A01D0112A20D1124B18
:1008E00002689A4217D193681B0219D4936843F4A3
:1008F000000393600968102912D10C490C4A096859
:10090000B1FBF2F101EB8101490000E0491E0091C9
:100910000029FBD104E0816A41F0200181620124B9
:1009200080F824502046F8BD0024014098000020A3
:1009300040420F00704770477047806A70470068F8
:10094000C06C70472DE9F0414FF0000704003D46B0
:100950007ED0A06A002628B9E66284F8246020468A
:1009600000F07EF82046FFF793FDA16AC90600D487
:1009700020B1A06A40F01000A06269E0A16A21F4F1
:10098000885141F00201A1626268E169237B0A4358
:1009900047EA43010A43A1684FF48077B94209D07E
:1009A000012907D05FF0000194F814C0BCF1010FD9
:1009B00002D00AE03946F7E7F3B1A36A43F0200317
:1009C000A362E36A43F00103E3622368D3F804C03F
:1009D0002CF4694C4CEA010CC3F804C021688B6804
:1009E000DFF870C003EA0C0313438B60A168B942BF
:1009F0000BD0012909D00CE0DFF85CC0A3690CEB37
:100A000043330B4343F40061DFE7218A0D05A5F56D
:100A100080152168CB6A23F470032B43CB622168D5
:100A200089680E4B1940914208D1E662A16A21F013
:100A3000020141F00101A162BDE8F081A06A20F04D
:100A4000020040F01000A062E06A40F00100E062A5
:100A50000120F1E7FDF7E1FF00E0FFFFFE0E1FFFC1
:100A600070B586B00026009601960296039605465C
:100A7000284B0268284903209A422FD18A6942F400
:100A800000728A618A6902F4007204928A6942F0F3
:100A900004028A61896901F0040104910F21CDE902
:100AA000001069461D4800F0E9FA1E4C1C48C4E9D4
:100AB00000068020C4E9026040002061800060617F
:100AC0002020A0610002E061204600F05FFA08B13A
:100AD000FFF743FE2C62656206B070BD124B9A426E
:100AE000FAD18A6942F480628A618A6902F480627A
:100AF00004928A6942F008028A61896901F008015A
:100B000004910121CDE900106946084800F0B6FAC9
:100B1000E2E700000024014000100240000801400C
:100B2000080002406405002000280140000C01403C
:100B30002DE9F84300270D460446009700F09CFB82
:100B4000804620688168C90508D5A06A40F0200069
:100B5000A06284F824700120BDE8F8834168C905CB
:100B600003D4C06A10F4700F2AD0022000F0D6FE21
:100B70003B490968B1FBF0F62068036939490B422B
:100B80004FEA61014FEAA1121FD1C3684FEA611C0D
:100B900013EA0C0F19D103690B4225D1C06810422A
:100BA00022D1142023E0681C0AD02DB100F064FB90
:100BB000A0EB0800A84203D920680068800725D56B
:100BC000206800688007EED52DE003690B4202D152
:100BD000C168114206D0026923490A4206D1C068A1
:100BE000084203D1542002E0292000E0FC204643C3
:100BF000009816E0681C11D02DB100F03DFBA0EB71
:100C00000800A8420AD90098B04207D2A06A40F072
:100C10000400A06284F8247003209DE70098401C23
:100C20000090B042E6D321686FF012000860A06A1D
:100C300040F40070A06220688068C0F3424007283A
:100C40000CD1207B50B9A06A20F48070A062A06A09
:100C5000C00403D4A06A40F00100A06200207BE73A
:100C600098000020244992244992240070B504463B
:100C700090F8240001280DD0012084F8240020469B
:100C8000FFF76AFC02004FF0000005D084F8240052
:100C9000104670BD022070BDA16A40F20123994345
:100CA00041F48071A1621F4D23681F49AB4218D1E6
:100CB0000E6816F4702F14D0A66A46F48016A66249
:100CC0000E68760505D5A66A26F4005646F48056C9
:100CD000A662A66AF6040AD5E66A26F00606E66269
:100CE00006E0A66A26F48016A6625E68E9E7E0627E
:100CF00084F824006FF00200186020688368C3F352
:100D00004243072B05D1A84208D1096811F4702F7E
:100D100004D0816841F480118160B9E7816841F4B1
:100D2000A001F9E700280140042401402DE9F04723
:100D3000894604463B4900683B4F0E1D9046884259
:100D400001D0B84207D1306810F4702F03D00125CC
:100D50002846BDE8F08794F8240001280CD0012033
:100D600084F824002046FFF7F7FB05004FF0000051
:100D700004D084F82400EBE70220EAE7A16A40F6F9
:100D80000162914341F48071A1622168B94218D196
:100D9000326812F4702F14D0A16A41F48011A1625C
:100DA0003168490505D5A16A21F4005141F480510B
:100DB000A162A16AC9040AD5E16A21F00601E162D3
:100DC00006E0A26A22F48012A2624968E9E7E062C2
:100DD00084F82400216A15488862216A1448C86290
:100DE000216A1448086321686FF0020008602068D7
:100DF000816841F480718160216843464A464C31E4
:100E0000206A00F0F1F820688168C1F342410729A7
:100E1000816803D041F48011816099E741F4A00119
:100E2000FAE700000024014000280140E704000820
:100E30004F050008350500082DE9F05FC16B0C680F
:100E400001680B68D0F840C0042202FA0CF2494D48
:100E5000DFF824A1494E4A4FDFF828B1DFF828E136
:100E600022422CD05A072AD50A68920603D40A686F
:100E700022F004020A600168A94201D1042219E0AB
:100E8000514501D1402215E0B14202D14FF48062B8
:100E900010E0B94202D14FF480420BE0594502D133
:100EA0004FF4802206E0714502D14FF4800201E048
:100EB0004FF080622F4908394A60C16A3BE04FF029
:100EC000020808FA0CF818EA040F4FF000094FF076
:100ED000010235D05FEA837832D50B689B0605D4D2
:100EE0000B6823F00A030B6080F821200168A942F7
:100EF00001D1022219E0514501D1202215E0B14271
:100F000002D14FF4007210E0B94202D14FF4005206
:100F10000BE0594502D14FF4003206E0714502D191
:100F20004FF4001201E04FF00072124908394A6094
:100F300080F82090816A00291AD0BDE8F05F084748
:100F4000082505FA0CF5254212D01B0710D50B68B1
:100F500023F00E030B6090F84010C36B02FA01F10E
:100F60005960826380F8212080F82090016BE2E7CD
:100F7000BDE8F09F080002401C0002403000024023
:100F800044000240580002406C00024030B528B3D3
:100F900008C8134914221944B1FBF2F18900C16356
:100FA00010498163022141771A6843F6F0718A4340
:100FB000D0E900142143D0E902452C4321430469C0
:100FC000214344692143846921431143196000216D
:100FD0004163012242770177084630BD012030BDD0
:100FE000F8FFFDBF0000024070B5044690F82000F5
:100FF000002501280CD0012084F8200094F82160FD
:101000000020012E06D084F820000225284670BD5D
:10101000022070BD022684F82160A0632068066863
:1010200026F0010606602046FFF748FBE06A00282C
:101030002068016802D041F00E0106E021F00401B1
:1010400001602068016841F00A01016020680168C0
:1010500041F001010160D9E770B5044600F00CF9D8
:101060000546601C02D004480078044400F004F9EE
:10107000401BA042FAD370BD8C0000202DE9F84F30
:10108000DFF8B891002409F1040A0AF1040B2346A1
:101090000F270BF1040EC9E00125A5402A40AA4202
:1010A0007DD1674ED1F804C0ACEB0608B44532D010
:1010B00014DCBCF1030F3AD009DCBCF1000F2AD0DC
:1010C000BCF1010F1CD0BCF1020F31D11DE0BCF10D
:1010D000110F17D0BCF1120F2AD119E0B8F5881FF3
:1010E00019D006DCB8F5803F15D0B8F5801F1FD1A8
:1010F00011E0B8F5001F0ED0B8F5041F18D10AE0B2
:10110000CB6815E0CB681B1D12E0CB6808330FE0FD
:10111000CB680C330CE08B682BB1012B4FF008032C
:1011200003D0456104E0042302E0056100E00023F0
:10113000FF2A01D8064601E000F104064FEA8405C3
:1011400001D9A5F12005D6F8008007FA05FC28EAA8
:101150000C0803FA05F548EA0508C6F800804D6852
:10116000ED0062D5374DAE6946F00106AE61AD695E
:1011700024F0030605F001050095334D06EB050C40
:10118000DCF80850A607360F07FA06F825EA080526
:10119000DFF8B880404503D14FF0000817E044E085
:1011A000DFF8AC80404502D14FF001080FE0DFF8D6
:1011B000A480404502D14FF0020808E0DFF8988093
:1011C000404502D14FF0030801E04FF0040808FA4F
:1011D00006F848EA0508CCF808804D68D9F80060A0
:1011E000ED034D4601D5164300E096432E604D6851
:1011F000DAF80060AD03554601D5164300E096438A
:101200002E604D68DBF80060ED025D4601D51643A7
:1012100000E096432E604D68DEF80060AD02754632
:1012200001D5164300E096432E60641C0D682A46E3
:10123000E5407FF431AFBDE8F88F000000040140C5
:1012400000001110001002400000014000080140A1
:10125000000C01400010014000140140C26821EA66
:1012600002030A4043EA0241016170470AB1016189
:1012700070470904FBE700000148806870470000E0
:101280008C00002070B5040025D094F83D000025A6
:1012900020B984F83C50204600F078FA242084F8E5
:1012A0003D002068016821F00101016020680168AB
:1012B00041F4004101602068016821F400410160AF
:1012C00000F0A2FC4D4A6168914201D84C4900E00F
:1012D0004C49884201D2012070BD4B492368B0FBC4
:1012E000F1F15E6826F03F060E435E60636893424C
:1012F00006D94FF4967359434FF47A73B1FBF3F167
:101300002368491C1E6A26F03F0631431962616852
:10131000914210D84900401EB0FBF1F2521CC2F3BA
:101320000B02042A01D2042022E0B0FBF1F0401CA1
:10133000C0F30B001CE0A268F2B301EBC10303EBA6
:101340000116431EB3FBF6F35B1C43F480431B05FD
:1013500049D092B301EBC10202EB0111401EB0FB78
:10136000F1F0401CC0F30B0040F4804040F400401A
:101370002168CA694CF6FF739A431043C861D4E9E7
:10138000071001432068026822F0C0021143016087
:10139000D4E9030101432068826848F2FF339A438D
:1013A00011438160D4E9050108432168CA6822F02D
:1013B000FF021043C86001E00EE016E020680168FB
:1013C00041F0010101602564202084F83D0025637F
:1013D00084F83E50002070BD01EB4106431EB3FB74
:1013E000F6F35B1CB3E70120C2E701EB4101401EAD
:1013F000B0FBF1F0401CC0F30B00B7E7A086010082
:1014000080841E0000093D0040420F002DE9FF4F7F
:1014100083B00025DDE910799A4693460446DDF84D
:1014200048800095FFF728FF064694F83D002028E5
:101430007CD11923012285492046009601F082F9CA
:101440000028F5D194F83C0001286FD0012084F8E1
:101450003C0020680168C90703D1016841F001011F
:1014600001602068016821F400610160222084F895
:101470003D00402084F83E0025646762A4F82A906D
:10148000608D20857248E062CDE9008653465A4659
:101490002046049901F05EF800287DD1208DDFF808
:1014A000B491202768B1012814D00228206801686F
:1014B0001ED041F48061016020684169806900901C
:1014C000B6E02068416981690091016841F40071CA
:1014D0000160ADE02068016821F48061016072B6AE
:1014E0002068416981690091016841F400710AE056
:1014F00041F40061016072B6206841698169009120
:10150000016821F48061016062B691E0032868D827
:1015100001280CD0022843464FF0000249462046DD
:1015200000960FD001F00EF9B0BB10E08BE0324610
:101530004146204601F085F970BB20680069616A68
:1015400008706CE001F0FEF830BB72B634E0206841
:10155000016821F48061016072B620680069616AE7
:101560000870606A401C6062208D401E2085608D7E
:10157000401E6085384846F2A8110068B0FBF1F0C3
:10158000C0EBC00000EB80000090401E009008D02F
:1015900020684069C04300E029E040070CD500986E
:1015A000F3E744F8305F6773A573206940F02000CB
:1015B000206162B625731AE02068016841F4007169
:1015C000016020680069616A0870606A401C60629E
:1015D000218D491E2185618D491E618562B6216874
:1015E0001BE032464146204601F02BF918B101209C
:1015F00007B0BDE8F08F20680069616A0870606A12
:10160000401C6062218D491E2185618D491E6185C6
:1016100021684A69D24352070AD409690170606A95
:10162000401C6062208D401E2085608D401E6085BC
:10163000208D00287FF46AAF84F83D7084F83E5016
:1016400084F83C50D4E70220D2E7000002001000EA
:101650000000FFFF04000100980000202DE9FF4F6B
:1016600083B09A46DDE9119793460446DDF8408041
:10167000FFF702FE054694F83D0020287FD119238C
:10168000012240492046009501F05CF8002876D1FF
:1016900094F83C00012872D0012084F83C002068B6
:1016A0000168C90703D1016841F0010101602068A8
:1016B000016821F400610160212084F83D00402090
:1016C00084F83E0000262664C4F82480A4F82A90FA
:1016D000608D20852C48E062CDE9007553465A465E
:1016E0002046049900F0B4FF70B930E02A4639462C
:1016F000204601F0D9F858B1206C042804D12068A4
:10170000016841F400710160012007B0BDE8F08F6D
:10171000606A216800780861606A401C6062218DFF
:10172000491E89B22185628D521E628522685369E5
:10173000DB435B070BD469B100781061606A401C21
:101740006062208D401E2085608D401E6085208D4A
:101750000028CBD12A463946204600F0CDFF00288C
:10176000CAD154F83D0B016841F40071016020209A
:1017700004F81E09E67766770020C6E7FFE7022037
:10178000C3E70000020010000000FFFF10B586B0A4
:101790000021009101910291039100681049884253
:1017A0001BD1104CA06940F00800A061A0696946F7
:1017B00000F0080004904FF4406000901220019067
:1017C000032003900848FFF759FCE06940F48000CB
:1017D000E061E06900F48000049006B010BD0000F4
:1017E0000058004000100240000C0140024881688F
:1017F00002781144816070478C000020074810B5C2
:10180000016841F010010160032000F075F80F201D
:1018100000F006F800F024F8002010BD002002407F
:1018200070B50D4D04464FF47A712878B1FBF0F095
:101830000A490968B1FBF0F000F0CCFB48B9102C64
:1018400007D200222146501E00F036F800206C60BE
:1018500070BD012070BD00008C00002098000020A9
:101860000C4808B5816941F001018161816901F08D
:1018700001010091C16941F08051C161C06900F06E
:10188000805000900448416821F0E06141F000710F
:10189000416008BD0010024000000140002809DB43
:1018A00000F01F02012191404009800000F1E0207A
:1018B000C0F8001170470000F0B40E4B1B680C46D6
:1018C000C3F30223C3F10705042D00D90425191D14
:1018D000072901D2002300E0DB1E012606FA05F1EC
:1018E000491E214099409E40761E16403143F0BC6F
:1018F00001F02DBE0CED00E0064900F0070208687B
:101900004FF6FF03184040EA0220034A10430860E4
:10191000704700000CED00E00000FA0510B529A4A6
:1019200001461DCC86B08DE81D002AA02A4C006817
:1019300004900020012923D002293AD010291DD17A
:1019400061682268D20119D5C1F38342C9031DF829
:10195000020009D5616804AAC1F34041515C1F4AE5
:10196000B2FBF1F1484301E01D4948436168490277
:1019700004D440005FF00301B0FBF1F006B010BDED
:10198000226AC2F30121012903D1920701D5C803BC
:10199000F4E7022905D1626A920702D549F6404070
:1019A000ECE70329EAD121688903E7D54FF2244007
:1019B000E4E700F039F96168C1F38131491C49005D
:1019C000DAE7000002030405060708090A0B0C0DFC
:1019D0000E0F1010010200000010024000127A00E9
:1019E00000093D002DE9F84305460078354CC00755
:1019F00054D0E0690026C00008D4E06940F080506F
:101A0000E061E069012600F0805000902E480168F6
:101A1000C90512D40168804641F480710160FFF766
:101A20002BFC074605E000BFFFF726FCC01B64281F
:101A300023D8D8F80000C005F6D5206A10F440700D
:101A400021D0A98801F4407181421CD0206A1F492D
:101A5000012220F440700A6000220A602062C00760
:101A600011D0FFF709FC074641F2883808E000BFB3
:101A7000FFF702FCC11B414502D90320BDE8F883F2
:101A8000206A8007F4D5206A696820F44070084312
:101A900020621EB1E06920F08050E0612878800764
:101AA00005D56068A96820F4404008436060287844
:101AB000C00605D56068E96820F4800008436060CE
:101AC0000020DBE70010024000700040400442426A
:101AD0002DE9F0470F46050061D0434E306800F015
:101AE0000700B84209D2306820F007003843306060
:101AF000306800F00700B84251D128683B4C81079C
:101B000012D5400703D5606840F4E0606060287833
:101B1000000703D5606840F4605060606068A968A1
:101B200020F0F000084360602878C00728D068687B
:101B3000012810D02168022810D0890700292EDA48
:101B4000616821F0030101436160FFF795FB804666
:101B500041F288390DE021688903EFE78901EDE75B
:101B6000FFF78AFBA0EB0801494502D90320BDE835
:101B7000F0876068696800F00C00B0EB810FEFD16E
:101B8000306800F00700B8420BD9306820F0070039
:101B900038433060306800F00700B84201D00120BF
:101BA000E5E72878400705D56068E96820F4E0603B
:101BB000084360602878000706D56068296920F42A
:101BC000605040EAC100606000F03EF86168084A79
:101BD000C1F30311515CC84006490860064800681B
:101BE000FFF71EFE0020C2E7002002400010024066
:101BF000D292000898000020900000200148006860
:101C000070470000980000200448054900684968B2
:101C1000044AC1F30221515CC8407047980000207B
:101C200000100240E2920008044805490068496833
:101C3000044AC1F3C221515CC8407047980000209B
:101C400000100240E292000812A185B00FC98DE891
:101C50000F0014A0144A006804905168134801F062
:101C60000C03042B10D0082B0ED1C1F38343C903FE
:101C70001DF803000AD5516804AAC1F34041515C24
:101C80000A4A5043B0FBF1F005B070470849484399
:101C9000FAE7000002030405060708090A0B0C0D09
:101CA0000E0F1010010200000010024000127A0016
:101CB00000093D002DE9F84F040070D02078C04D98
:101CC000C00749D06868C0F38100012807D0686860
:101CD000C0F38100022809D16868C00306D52868CE
:101CE000800339D560680028E7D035E06068B0F53A
:101CF000803F0BD010B1B0F5A02F11D0286820F490
:101D000080302860286820F4802002E0286840F4B1
:101D100080302860606890B1FFF7AEFA06460AE0AE
:101D2000286840F480202860F0E700BFFFF7A4FA9D
:101D3000801B642873D828688003F7D50CE0FFF770
:101D40009BFA064605E000BFFFF796FA801B642861
:101D5000F0D828688003F7D420789A4E80074FF097
:101D600001094FF0000839D5686810F00C0F07D052
:101D70006868C0F38100022809D16868C00306D4EE
:101D80002868800714D52069012808D110E020694F
:101D9000B0B1C6F80090FFF76FFA074605E00AE118
:101DA000FFF76AFAC01B0228C4D828688007F7D555
:101DB0002868616920F0F80040EAC10028600DE061
:101DC000C6F80080FFF758FA074604E0FFF754FA18
:101DD000C01B022823D828688007F7D42078000782
:101DE0002CD57948A169D9B1C0F80090FFF744FA21
:101DF000074604E0FFF740FAC01B02280FD8686AC4
:101E00008007F7D571484FF4FA510068B0FBF1F044
:101E1000009000BF0098411E0091FAD20EE080E0D1
:101E2000C0F80080FFF728FA074604E0FFF724FA1D
:101E3000C01B022875D8686A8007F7D4207840074D
:101E400060D5E8690027C00008D4E86940F08050F8
:101E5000E861E869012700F0805000905C48016863
:101E6000C90513D40168834641F480710160FFF70E
:101E700003FA824606E000BFFFF7FEF9A0EB0A0076
:101E800064284ED8DBF80000C005F5D5E0680128CD
:101E90000AD008B1052813D0286A20F00100286272
:101EA000286A20F0040002E0286A40F0010028625D
:101EB000E06841F2883B98B1FFF7DEF982460BE01B
:101EC000286A40F004002862EEE700BFFFF7D4F96B
:101ED000A0EB0A0159455AD8286A8007F6D50CE0CC
:101EE000FFF7CAF9824605E0FFF7C6F9A0EB0A0141
:101EF00059454CD8286A8007F6D41FB1E86920F00C
:101F00008050E861E06988B36968C1F38101022902
:101F100044D00228C6F8608004D0FFF7ADF904462B
:101F200038E034E0FFF7A8F9074604E0FFF7A4F92A
:101F3000C01B02282BD828688001F7D4206AB0F58E
:101F4000803F05D16868A16820F4003008436860CC
:101F5000D4E908010843696821F4741108436860F2
:101F6000C6F86090FFF788F9044606E025E000BF58
:101F7000FFF782F9001B022809D828688001F7D5ED
:101F80001BE000BFFFF778F9001B022802D90320ED
:101F9000BDE8F88F28688001F4D40EE00128F7D05E
:101FA0006868226A00F48031914204D1616A00F4C9
:101FB0007010884201D00120EAE70020E8E7000025
:101FC000001002400000424280044242980000207B
:101FD0000070004010B5401EB0F1807F01D3012099
:101FE00010BD4FF0E02460610F21601701F0AFFADF
:101FF0000020A06107202061002010BD70477047BD
:1020000070B590F83C20012A26D0012480F83C408D
:10201000022280F83D2003685A689D6822F070060D
:102020000A6832435A600D4B02689A4208D0B2F1F6
:10203000804F05D00A4B9A4202D00A4B9A4204D1F3
:10204000496825F080031943916080F83D400021E4
:1020500080F83C10084670BD022070BD002C014085
:10206000000400400008004010B5040003D094F8BC
:102070003D0010B107E0012010BD002084F83C00B5
:10208000204600F01FF8022084F83D00211D206842
:1020900001F04EF9012084F8460084F83E0084F8EF
:1020A0003F0084F8400084F8410084F8420084F83E
:1020B000430084F8440084F8450084F83D00002083
:1020C00010BD000008B500680B49884212D10B48CA
:1020D000816941F4006181618069002200F400603F
:1020E000009011461920FFF7E7FBBDE808401920D2
:1020F000FFF7D4BB08BD0000002C014000100240D7
:1021000090F83D10012901D001207047022180F88C
:102110003D100168CA6842F00102CA6000680B49BC
:10212000884208D0B0F1804F05D00949884202D0DA
:102130000849884204D1816801F00701062903D0CB
:10214000016841F00101016000207047002C01404E
:10215000000400400008004070B5044690F83C00C0
:10216000012817D0012584F83C50022084F83D0056
:102170002068826822F0770222F47F428260086839
:10218000502830D00DDC20284DD005DC98B3102825
:102190003BD148E0022070BD302844D0402834D1E3
:1021A00039E0602828D0702806D0B0F5805F2CD0A8
:1021B000B0F5005F29D10AE0CB68D1E901212068A0
:1021C00001F0ECF82068816841F0770109E0CB6804
:1021D000D1E90121206801F0E1F82068816841F42B
:1021E0008041816011E0CA684968206801F0E8F820
:1021F0005021206807E016E0CA684968206801F0AD
:10220000F0F86021206801F0D3F884F83D500020F8
:1022100084F83C0070BDCA684968206801F0D0F8B5
:1022200040212068EFE7226801461046EBE770473F
:1022300070B50446006801694FF00005C94389077D
:1022400015D4C168C943890711D4E91E0161012071
:102250002077206880698007204602D0FFF7E7FFDB
:1022600004E000F098F8204600F096F82577206802
:102270000169C943490717D4C168C943490713D441
:102280006FF004010161022020772068806910F45A
:10229000407F204602D0FFF7CAFF04E000F07BF841
:1022A000204600F079F8257720680169C9430907BD
:1022B00016D4C168C943090712D46FF0080101613F
:1022C000042020772068C0698007204602D0FFF7ED
:1022D000AEFF04E000F05FF8204600F05DF82577DF
:1022E00020680169C943C90617D4C168C943C90632
:1022F00013D46FF010010161082020772068C069B5
:1023000010F4407F204602D0FFF791FF04E000F078
:1023100042F8204600F040F8257720680169C9435B
:10232000C90708D1C168C943C90704D1891E016121
:10233000204600F032F820680169C943090609D433
:10234000C168C943090605D46FF0800101612046C8
:10235000FFF754FE20680169C943490609D4C168E2
:10236000C943490605D46FF040010161204600F0E1
:1023700015F820680169C94389060BD4C168C943AF
:10238000890607D46FF0200101612046BDE8704046
:10239000FFF735BE70BD704770477047704770B526
:1023A000040004D094F83D00002510B106E001209F
:1023B00070BD84F83C50204600F022F8242084F8B8
:1023C0003D002068C16821F40051C160204601F041
:1023D0001BF82068016921F490410161206841697E
:1023E00021F02A0141612068C16841F40051C160B7
:1023F0002564202084F83D0084F83E00002070BD54
:1024000030B585B0002400940194029403940068D0
:102410001449884224D11448816941F48041816182
:10242000816901F480410491816941F00401816175
:1024300080690E4D00F0040004904FF4007000908D
:10244000022001900320039069462846FEF716FEFD
:102450002815CDE90004694628460294FEF70EFED1
:1024600005B030BD003801400010024000080140B6
:102470002DE9F843044690F83D001F4616460D46E8
:1024800020284CD1C5B1BEB194F83C00012846D0FB
:10249000012084F83C004FF00008C4F8408021205F
:1024A00084F83D00FEF7E8FEA6848146E684A06835
:1024B000B0F5805F03D004E00120BDE8F883206917
:1024C00028B12E465FF0000584F83C800EE000261F
:1024D000FAE78021204600F0F3FFA0B9AEB116F86C
:1024E000010B21684860E08C401EE084E08C4B4684
:1024F0004FF0000200970028EBD14FF0400120463A
:1025000000F0DEFF30B10320D7E735F8020BC0F34F
:102510000800E6E7202084F83D000020CDE70220F7
:10252000CBE7FEE701684A69D24352050FD46FF446
:1025300080624A61002140F8301F2022427381737B
:10254000026942F004020261017301207047002019
:10255000704700002DE9F84F0446006889460B9D3E
:1025600001689846174641F480610160206801685F
:1025700041F48071016000954FF0011B0022594623
:1025800020460A9B00F0DEF84FF4007A40B1206844
:102590000068C00501D5C4F840A00320BDE8F88F4D
:1025A000216809F0FE0008612B46284920460A9A56
:1025B00000F0FCF8F0BB20684169806900902A4671
:1025C00020460A9900F070F940B1206C04283AD1F5
:1025D0002068016841F40071016034E0FEB2B8F196
:1025E000010F09D02168380A08612A4620460A9955
:1025F00000F05AF90028E8D1206806612A462046F2
:102600000A9900F051F90028DFD12068016841F4EF
:102610008071016000950022594620460A9B00F017
:1026200091F80028B3D1216809F0FF0040F00100C3
:10263000086100E007E02B46044920460A9A00F0B2
:10264000B5F80028AAD00120A8E700000200010088
:102650002DE9F843044600680D46DDE90897016856
:102660009846164641F4807101604B4600224FF0B7
:1026700001112046009700F065F848B12068006815
:10268000C00502D54FF4007020640320BDE8F88334
:10269000216805F0FE0008613B464A461549204680
:1026A00000F084F888B920684169806900903A4652
:1026B0004946204600F0F8F848B1206C042804D1BF
:1026C0002068016841F4007101600120DEE7F5B285
:1026D000B8F1010F09D02168300A08613A4649462D
:1026E000204600F0E1F80028E7D1206805610020CD
:1026F000CCE700000200010070B516460D46044606
:102700000DE02046FFF70EFF08B1012070BD681CE8
:1027100005D0FEF7B1FD801BA84207D835B120686F
:102720004069C0434007ECD4002070BD002044F84D
:10273000300F20216173A073216941F020012161D4
:102740002073E2E72DE9F0471E4690460D46044609
:10275000C1F30747DDF8209008E0701C06D0FEF7B3
:102760008BFDA0EB0900B0420FD876B12068012F95
:1027700018D0806925EA00000004000C14D0002164
:102780004145EAD00020BDE8F087002044F8300F32
:1027900020216173A073216941F020012161207320
:1027A0000120F0E74069E5E70121E9E72DE9F0477D
:1027B0009A4691460E46044600254FF02008C1F384
:1027C000074725E020684069C043400514D42068CD
:1027D000016841F40071016021686FF48060486114
:1027E000256384F83D8084F83E50206C40F004005E
:1027F000206484F83C501FE0B9F1FF3F08D0FEF799
:102800003BFDA0EB0A0149450CD8B9F1000F09D0F6
:102810002068012F13D0806926EA00000004000C14
:102820000BD0CFE744F8305F84F80D80A5732069A2
:1028300040F02000206125730120BDE8F087406949
:10284000EAE72DE9F041002590460E460446202790
:1028500017E04069C043C0060CD454F8301B6FF039
:102860001000486144F810596777A577206A206204
:10287000257717E0FEF700FDA0EB0800B04208D86E
:102880003EB120684169C9434906E2D40020BDE851
:10289000F08144F8305F6773A573206940F0200031
:1028A000206125730120F2E770B516460D460446F7
:1028B0000DE02046FFF736FE08B1012070BD681C10
:1028C00005D0FEF7D9FC801BA84207D835B1206897
:1028D0004069C0430006ECD4002070BD002044F8DD
:1028E000300F20216173A073216941F02001216123
:1028F0002073E2E770B50E4A111F081F02F076F947
:102900000B4C143C10B10020207070BD01202070D1
:10291000E06803F09BFF064D0F3D2870206903F02F
:1029200095FF6870606903F091FFA87070BD0000AA
:102930004C00002010B51F48FEF7A4FC6420FEF7F1
:102940008BFB80216B2000F097F86420FEF784FB5E
:1029500000216B2000F090F8032000F058F80020D0
:1029600000F050F8322000F06FF80021382000F01D
:1029700083F800216A2000F07FF80021232000F076
:102980007BF88021372000F077F8752000F014F8EC
:10299000682801D0012010BD01216B2000F06CF8E7
:1029A00000216C2000F068F8322000F04DF8002083
:1029B00010BD0000A80500201FB500218DF80C10E7
:1029C00040F6FF73012203A98DE80E00134602466C
:1029D000D1210348FEF71AFD9DF80C0004B010BD8C
:1029E000A80500200EB540F6FF730092CDE9011353
:1029F00002460123D1210248FEF708FD00200EBD4A
:102A0000A8050020C006010E1C2000F035B8C00645
:102A1000010E1B2000F030B8BC2801D3012110E0CA
:102A2000622801D302210CE02A2801D3032108E007
:102A3000142801D3042104E00A2801D3052100E071
:102A400006211A2000F018B810B504464FF47A7029
:102A5000844201D9044602E0042C00D20424B0FBD5
:102A6000F4F0401EC1B2192000F006F86008BDE87D
:102A70001040FFF7D1BF000003B583B040F6FF73ED
:102A8000012204A98DE80E0013460246D021034816
:102A9000FEF7E4FD05B0002000BD0000A805002001
:102AA0000EB540F6FF730092CDE9011302460123F3
:102AB000D0210248FEF7D2FD00200EBDA80500205F
:102AC0003EB500242048009401941E490294016000
:102AD0008915816004730475042505614FF4602134
:102AE0004460C161FDF72EFF08B1FDF736FE00948A
:102AF00001240194694614480294FDF79DFE08B133
:102B0000FDF72BFE0094022469460F480194FDF75F
:102B100093FE08B1FDF721FE0094032469460A489C
:102B20000194FDF789FE08B1FDF717FE69460648D6
:102B3000CDE90045FDF780FE002801D0FDF70DFE30
:102B40003EBD000000240140040500203EB50021E8
:102B50001148009101910F4A029102608160017356
:102B6000017501244FF460220461C2614160FDF7E8
:102B7000E9FE08B1FDF7F1FD0820CDE90004694642
:102B800005480294FDF758FE002801D0FDF7E5FD49
:102B90003EBD00000028014034050020094808B56A
:102BA000416941F0010141614069002200F00100EA
:102BB000009011460B20FEF77FFEBDE808400B2079
:102BC000FEF76CBE001002402DE9F04186B00024F3
:102BD00024480094019402940394816941F02001F7
:102BE0008161816901F020010491816941F0040152
:102BF0008161816901F004010491816941F008015A
:102C000081618069184F00F008004FF4F875049056
:102C1000002229463846FEF729FBDFF850800022C3
:102C200048F270014046FEF721FB01228821404610
:102C3000FEF71CFB0095032601250396CDE9015400
:102C400069463846FEF71AFA48F2F800CDE9000561
:102C5000CDE9024669464046FEF710FA06B0BDE8E7
:102C6000F08100000010024000080140000C01400B
:102C70000D4810B50B4901600C49416000214FF42B
:102C800080428160C0E9031241618161C1610162DA
:102C9000FEF7F8FA002803D0BDE81040FDF75DBD4F
:102CA00010BD000000580040A8050020801A060052
:102CB00010B586B00024184800940194029403943F
:102CC000049414490594016041F61F41C0E90114C0
:102CD00041F28731C0E903148021C0E90541FFF7C3
:102CE000C3F908B1FDF739FD4FF4805000906946F3
:102CF0000948FFF731FA08B1FDF72FFD049404A944
:102D000005480594FFF77CF9002801D0FDF725FD63
:102D100006B010BD002C0140FC0500200C4810B589
:102D20000A4901604FF4E1314160002181600C22C9
:102D3000C160C0E904128161C161FFF730FB002866
:102D400003D0BDE81040FDF708BD10BD00380140BC
:102D500044060020FEE7FEE730B40021084B0A4697
:102D60005FF0000003EBC004401CC0B26254802836
:102D7000F8D3491CC9B20829F2D330BC00F0C8B856
:102D80009C00002030B1012807D100215FF0A7008E
:102D900000F01CBA0021A620FAE7704710B558B120
:102DA000012810D10021C02000F010FA0021A0203D
:102DB000BDE8104000F00ABA0021C82000F006FA71
:102DC0000021A120F4E710BD30B5CC0801F00703C5
:102DD00001259D40EBB2064D05EBC005C808285CF7
:102DE0000AB1184302E063EA0000C043285530BD31
:102DF0009C00002010B5414C002220212046FEF707
:102E000035FAC820FEF728F9012220212046FEF7D6
:102E10002DFA0021AE2000F0D9F90021084600F07B
:102E2000D5F90021102000F0D1F90021402000F058
:102E3000CDF90021812000F0C9F90021CF2000F058
:102E4000C5F90021A12000F0C1F90021C82000F03F
:102E5000BDF90021A62000F0B9F90021A82000F05A
:102E6000B5F900213F2000F0B1F90021D32000F096
:102E7000ADF90021084600F0A9F90021D52000F0A5
:102E8000A5F90021802000F0A1F90021D92000F04F
:102E90009DF90021F12000F099F90021DA2000F0DD
:102EA00095F90021122000F091F90021DB2000F0BB
:102EB0008DF90021402000F089F90021202000F048
:102EC00085F90021022000F081F900218D2000F019
:102ED0007DF90021142000F079F90021A42000F0F0
:102EE00075F90021A62000F071F9FFF735FF0021E8
:102EF000BDE81040AF2000F069B90000000C0140AF
:102F00000246012000E05043491EC9B2FBD270477F
:102F100070B5114E002400BF04F1B000C0B2002112
:102F200000F054F90021084600F050F9002110206B
:102F300000F04CF95FF0000506EBC5000121005DD3
:102F400000F044F96D1CEDB2802DF5D3641CE4B2A1
:102F5000082CE1D370BD00009C0000207CB5012549
:102F6000002108232FA20846009500F010F908243C
:102F70002E48CDE90045042302882146012000F0B7
:102F8000CFF82B4ECDE900450423328910210120D2
:102F900000F0C6F8CDE9004572890423182101200C
:102FA00000F0BEF8CDE90045B289042320210120BC
:102FB00000F0B6F8CDE90045F2890423282101206C
:102FC00000F0AEF81B4E307838B308231AA2002167
:102FD0003220009500F0DBF8F06803F037FC024681
:102FE000042308213220CDE9004500F099F830692A
:102FF00003F02CFC0246042310213220CDE90045C9
:1030000000F08EF8706903F021FC024604231821B9
:103010003220CDE9004500F083F8BDE87C40FFF7A1
:1030200077BF0000426174746572790088000020E7
:10303000A404002038000020494D55002DE9FC4F24
:103040001C460E4682468B460190082B0DD0600729
:1030500000D0012000EBD40061084843C0B2814693
:10306000203AD0B2009000204BE00620F7E7082C71
:1030700013D00C2C18D0102C1BD0182C44D1009835
:10308000234900EBC00000BF01EB8001002711F8CD
:103090000850E80712D00B9A13E000981D4900EB86
:1030A000400001EB4001F1E700981B4900EB4000B4
:1030B000EAE71A49009801EB0011E7E70B9828B3FB
:1030C000002231465046FFF77FFE761C7F1C6D08BC
:1030D000FFB2F6B2082FDCD30AF1010000F0FF0ABC
:1030E000082C0AD00199AAEB0100B0EB540F04D1CF
:1030F0000BF108008A4600F0FF0B08F101005E4664
:10310000C0B280464845B2D3BDE8FC8F0122D8E763
:103110002E790008A26C0008CA6E00083E730008F1
:103120002DE9F84F0025DDE90A691F4692468B46D6
:103130008046082E00D1022500241CE0381B401ECA
:10314000C1B20A20FFF7DCFEBAFBF0F00A21B0FBA7
:10315000F1F201FB1200CDF8009080B13030C2B224
:1031600005EB560101FB0480C0B233465946FFF718
:1031700065FF641CE4B2BC42E0D3BDE8F88F05EB08
:10318000560101FB0480C0B233463022EEE72DE940
:10319000F8411E46154688460446079F0BE0334615
:1031A000414620460097FFF749FF082E0AD004EB5E
:1031B0005600C4B26D1C2A78A2F120005E28EED918
:1031C000BDE8F881A41DE4B2F4E7000070B51A4E22
:1031D000054609B1012200E0002210213046FEF729
:1031E00045F8002208213046FEF740F8002400226E
:1031F00080213046FEF73AF8280601D5012200E08A
:10320000002240213046FEF731F80122802130466D
:10321000FEF72CF86806641C050EE4B2082CE6D311
:10322000012208213046FEF721F83046BDE8704003
:1032300001221021FEF71AB8000C014070477047B8
:10324000FEF7D4BA30B593B028216846FDF714F8DC
:1032500014210AA8FDF710F8002501200F951095FC
:103260001195010412958DE8230004904FF4E010AD
:10327000CDE90810022407946846FEF71BFD08B14B
:1032800072B6FEE70AA90F2081E831004FF4806092
:10329000CDE90D0502210AA8FEF71AFC08B172B6A5
:1032A000FEE74FF4004011900F940FA8FEF79AFB31
:1032B000002801D072B6FEE713B030BD70470000A1
:1032C00010B51648FDF7D2FC05211448FDF730FC77
:1032D0001248FDF732FB80051AD51048FDF72FFB89
:1032E00080B20F4C02F053FE4FF066320D4B02F0ED
:1032F00061FE00220C4B02F05DFE02F01BFE80B26C
:1033000002F045FE022203F060FC02F013FE208072
:10331000BDE810400548FEF78BBF000034050020D3
:103320008800002066664A3F00408F40FC05002070
:10333000F0B50268164B174C174D4FF08047984276
:1033400005D0B84203D0A04201D0A84203D122F058
:1033500070064A683243984205D0B84203D0A04272
:1033600001D0A84203D122F44074CA6822434C69B8
:1033700022F08002224302608A68C2620A68826286
:10338000984201D10969016301214161F0BD00004A
:10339000002C0140000400400008004010B5846883
:1033A00042EA032224F47F440A432243826010BD90
:1033B000826822F070020A4342F007018160704780
:1033C00010B5036A046A24F001040462846924F0DD
:1033D000F00444EA021423F00A020A438461026200
:1033E00010BD10B5036A23F0100303628369046AF9
:1033F00023F4704343EA023224F0A00343EA0111AC
:103400008261016210BD000070B504460068016968
:10341000E26821F44051114301612169A068084329
:10342000616908432168CA6841F20C639A43024308
:10343000CA6020684169A26921F440711143416169
:103440001E492068884202D1FEF7EEFB01E0FEF73C
:10345000DBFB00EBC00101EB00126068642180001F
:10346000B2FBF0F3B3FBF1F36FF018067343B2FB5A
:10347000F0F5B2FBF0F605EB8305322303EB0515FF
:10348000B5FBF1F5B6FBF1F605F0F00505EB061519
:10349000B2FBF0F6B2FBF0F0B0FBF1F06FF0180207
:1034A000504306EB800003EB0010B0FBF1F0216805
:1034B00000F00F002844886070BD00000038014013
:1034C0002DE9F041984617460E460446069D1DE03C
:1034D000681C1BD02DB1FDF7CFFEA0EB0800A84261
:1034E00014D92068C16821F4D071C1602068416995
:1034F00021F001014161202084F83D0084F83E0064
:10350000002084F83C000320BDE8F08120680068BA
:1035100036EA000004D00020B842D9D00020F3E7FA
:103520000120F9E7FEE7490050EAC12018BF042056
:103530004A0D18BF40F0010040F2FF72B2EB515F3C
:1035400008BF40F00200012808BF052070470907A6
:10355000090E002804DB00F1E02080F80014704719
:1035600000F00F0000F1E02080F8141D70472DE9F5
:10357000F0414F1E00EBC7010446D1E9000115469A
:103580001E4637F006020DD02A46334602F012FDE1
:103590007F1E04EBC703D3E9002302F07BFA37F068
:1035A0000602F1D1022F25D0042F13D0062F18BF09
:1035B000BDE8F0812A46334602F0FCFCD4E90A2338
:1035C00002F068FA2A46334602F0F4FCD4E90823F4
:1035D00002F060FA2A46334602F0ECFCD4E90623F6
:1035E00002F058FA2A46334602F0E4FCD4E90423F8
:1035F00002F050FA2A46334602F0DCFCD4E90223FA
:1036000002F048FA2A46334602F0D4FCD4E90023FB
:10361000BDE8F04102F03EBA012203F0D6BA02F052
:1036200039BA002213461046114602F0EFBA0000E4
:10363000024A0020110703F0C8BA000001FDFFFF95
:103640002DE9FE4F07460E460025684601F006F8B4
:1036500000246FF00F0AE8464FF0010957F82400E4
:1036600056F82410401A00D5404203F00FF9514695
:1036700003F0D9FA58F8241011F0FF4F0BD003F0E3
:1036800007F84FF07E5103F0F9F90A4920F00040A5
:10369000884205DC07E0084908440849884202D30B
:1036A00009FA04F00543641C032CD7DB2846BDE867
:1036B000FE8F0000295C0F3E666666C19A99D900AC
:1036C0002DE9F04D8D4F21F0004A86B005460C469D
:1036D000BA452ADBAAEB070028430AD0884882456E
:1036E00001DC1AD1CDB106B02846BDE8F04DFFF798
:1036F00093BF844A844B284602F05CFC07460E4682
:10370000824A834B2846214602F054FC06B03A46D2
:103710003346BDE8F04D02F0BDB90120FCF752FE82
:1037200006B0BDE8F04DFFF77CBF7A48824542DA2B
:10373000BAF1795F0BDA2846FFF7F5FE042808BFD7
:10374000FFF776FF284606B02146BDE8F08D2A46F1
:103750000B46104602F02EFC834602466E480E468B
:103760000B4606217844FFF702FF5A46334602F023
:1037700021FC804669488A465A46334604217844EB
:10378000FFF7F5FE5A46334602F014FC00223B4692
:1037900002F080F902460B464046514602F036FAE6
:1037A0002A46234602F006FC06B02A462346BDE818
:1037B000F04D02F06FB9284624F0004100223D464A
:1037C0003B4602F0F5FC4FF0FF3203F0FEF90646EF
:1037D000024653480F460B4606217844FFF7C7FEC2
:1037E00032463B4602F0E6FBCDE900014D48324649
:1037F0003B4604217844FFF7BAFE32463B4602F0CE
:10380000D9FB00222B4602F045F98346029130464F
:10381000394602F0E7F8804643480D46504517DC2C
:10382000DDE900015A46029B02F0F0F942462B46C0
:1038300002F0C0FB42462B4602F02CF9012203F0B5
:10384000C4F9304A304B02F0A5FD304A304B4CE011
:103850004FF0000A52460B46404602F01BF9CDE9F4
:10386000031052462B461046194602F0A3FB32467F
:103870003B4602F09DFCDDE9033202F0C7F9064643
:103880000F46DDE900015A46029B02F0BFF983466C
:10389000009101223046394603F097F9194A1A4B34
:1038A00002F086FC06460F4601224046294603F0F8
:1038B0008CF95A46009B02F07DFB32463B4602F0F3
:1038C00069FD06460F4601225046294603F07DF960
:1038D0000E4DDFF858802A46434602F069FC324616
:1038E0003B4602F065FC2A46434602F061FC002C90
:1038F000D8BF81F0004106B0BDE8F08D0000F03F78
:103900000000F07F075C143326A6913C182D445428
:10391000FB21F93F0000E03F885B00009E5B000058
:10392000125B0000285B00003333EF3FFB21E93FCF
:103930002DE9F84F04460D4621F0004000917349EF
:10394000814211DC7249884201DC06D12CB120464B
:103950002946BDE8F84FFFF75FBE6E48002DCCBF8B
:103960006D496E49BDE8F88F6D49814211DD6D49A1
:103970008142D8BF4FF0FF366DDD20462946FFF764
:10398000D2FD042808BFFFF753FE20462946BDE8B4
:10399000F88F6549654F25F00045814233DD644964
:1039A000814219DD002632464FF0804320462946E9
:1039B00002F070F880468A4601222046294603F02C
:1039C00004F900223B4602F0E5FC4246534602F071
:1039D0001DF904460D463EE001260022BA463B464C
:1039E0002046294602F056F880460F4600225346EC
:1039F0002046294602F0CEFC42463B4602F006F93C
:103A000004460D4627E04B4981421BDDDFF828A123
:103A10000226002253462046294602F0CBFA002215
:103A20003B4602F037F880460F46002253462046B8
:103A3000294602F0AFFC42463B4602F0E7F8044656
:103A40000D4608E0032622462B4600203B4902F0A3
:103A5000DDF804460D4622462B461046194602F074
:103A6000A9FA8B46824602460B4602F0A3FA0746A5
:103A70000246334888460B4606217844FFF777FD17
:103A800052465B4602F096FA82462E488B463A46EC
:103A9000434605217844FFF76AFD3A46434602F063
:103AA00089FA02460B46002E504659460CDA01F0C0
:103AB000F1FF22462B4602F07DFA01B022462B464A
:103AC000BDE8F04F02F074BB01F0E4FF22462B4644
:103AD00002F070FA1C4A7A4402EBC603D3E90023D1
:103AE00002F058FC22462B4602F054FC174A7A4456
:103AF00002EBC603D3E9002302F05AFB009A002A26
:103B0000B8BF81F00041BDE8F88F0000000010440C
:103B10000000F07F182D4454FB21F93FFB21F9BF31
:103B20000000DC3F0000203E0000F33F0000F03FBB
:103B30000000E63F008003400000F83F0000F0BFB7
:103B40002A590000E8580000865800004E5800002E
:103B50002DE9F04D9446CCF1000423F000464CEAE8
:103B60000404594F46EAD4749A46884621F000422C
:103B7000BC4206D8454240EA050442EAD474BC423D
:103B800004D9BDE8F04D6246FFF749BDAAF14055A2
:103B9000A5F17F6555EA0C040BD0022404EAAA744F
:103BA0004A4DDFF82CE144EAD87452EA000B04D005
:103BB0000CE0BDE8F04DFFF7BBBE002C14BF012C9C
:103BC000BDE8F08D022C30D0032C32D056EA0C0B1D
:103BD0000AD0BE4220D1BA4209D126F0804622F056
:103BE00080423346114617E000291ADB25E0DFF852
:103BF000E4B0FB44002C04BFDBE90001BDE8F08D1C
:103C0000012C02BFDBE9000181F00041BDE8F08D2D
:103C1000022C0AD0032C0CD0BA4212D1B8F1000FFA
:103C20000BDA2A482C49BDE8F08D28462B49BDE81F
:103C3000F08D28467146BDE8F08D24482849BDE83E
:103C4000F08D921B12153C2AC4BF204F244E10DC6D
:103C5000BAF1000FBEBF12F13C0F00273E4608DB51
:103C6000624601F0D3FF21F00041FFF761FE0746F5
:103C70000E4694B1012C08BF86F000460DD0194ABB
:103C8000194B022C3846314615D002F083FB2A46E8
:103C9000BDE8F04D114B02F07DBB002213463846C3
:103CA000314602F00BF904BF0220FCF78BFB3846CB
:103CB0003146BDE8F08D02F06DFB2A46BDE8F04DBF
:103CC000064B02F075BA00000000F07F182D445436
:103CD000FB2109C0E2570000FB21F9BFFB2109408D
:103CE000FB21F93F075C143326A6A13C10B504461E
:103CF000FDF784FF0349B0FBF1F16143491EFDD29A
:103D000010BD000000093D0008B560B120208DF80D
:103D1000000028208DF8010030208DF802003820A6
:103D20008DF8030004E0A32204216846FCF79CFA06
:103D30006A46042140F69E2001F0C2FD01F0B6FA69
:103D400008BD00003EB5044602208DF80000CA20E0
:103D50008DF80100E3208DF8020009208DF80300A2
:103D60006A460421682001F0ABFDA3208DF8000015
:103D7000610609D5C0218DF80110C8218DF8021007
:103D8000C2218DF8031005E08DF801008DF80200C6
:103D90008DF8030014F4C07F09D0C4218DF80410FD
:103DA000CC218DF80510C6218DF8061005E08DF8A0
:103DB00004008DF805008DF806008DF808008DF8D8
:103DC00007008DF809006A460A2140F6A72001F095
:103DD00077FDA0074FF0D80503D020208DF8000014
:103DE00001E08DF800506A46012140F6B62001F04E
:103DF00067FDA00601D5012000E0002000F08EF84C
:103E000014F4C07F1ED0E0050AD5B2208DF8000062
:103E10008B208DF80100B6208DF802009B2009E070
:103E2000B0208DF8000080208DF80100B4208DF8BE
:103E3000020090208DF803006A46042140F6A2207B
:103E400001F03EFDE1074FF40B6022D0F8218DF820
:103E500000106A46012101F033FDFA21072000F02D
:103E600049FB072000F014FB012000F031FB642027
:103E700000F0D4FB4FF4FA7000F0E0FBC8212548B5
:103E800000F0CEFA282000F0E3FA0A2000F0F0FA61
:103E900005E08DF800506A46012101F011FDA007F0
:103EA00003D5D9208DF8000001E08DF800506A4656
:103EB000012140F23D7001F003FD600701D50120B2
:103EC00000E0002000F048F8E00601D5012000E005
:103ED0000020FFF719FF104D44F00800688101F041
:103EE000E5F90020A873600601D50620A87314F434
:103EF000C07F02D0A87B801DA87314F0140F02D0DD
:103F0000A87B1030A873A00702D0A87B001DA8735F
:103F100000203EBD09E3CA02940400200EB54FF410
:103F2000976310B106A107C901E008A207CA8DE88E
:103F300007006A460921184601F0C2FC0EBD0000C8
:103F4000B8AAB38DB4980D355D000000B8AAAAAA2E
:103F5000B088C3C5C700000008B560B1C0208DF8A7
:103F60000000C2208DF80100C4208DF80200C62098
:103F70008DF8030004E08B2204216846FCF774F9F5
:103F80006A46042140F6982001F09AFC01F08EF96F
:103F900008BD0000C8234FF48062024940F6F630A5
:103FA00001F074B8DC8600082DE9FF4F89B0174690
:103FB000DDE916520024544E884681462C80A246E4
:103FC000B07B694601F006F94FF0FF3B18B1584647
:103FD0000DB0BDE8F08F708910F0140F4CD0BDF813
:103FE00000109DF8022049BA090441EA02239DF815
:103FF00003100B433B60BDF804109DF8062049BA3E
:10400000090441EA02229DF807101B140A437A6052
:10401000BDF808109DF80A4049BA090441EA042194
:104020009DF80B4012142143B960BDF80C409DF877
:104030000EC064BA240444EA0C2C9DF80F40091405
:104040004CEA040CC7F80CC04FEA2C475B434943C9
:1040500002FB023207FB071111441024A1F1706129
:10406000B1F1007F04D901F021F9A5F800A0AEE775
:10407000298841F4807129804206694611D50A19C0
:10408000A41D13885BBAA8F8003053885BBAA8F85F
:104090000230928852BAA8F804202A8842F0080216
:1040A0002A8010F4C07F11D00A19A41D13885BBAAE
:1040B000A9F8003053885BBAA9F80230928852BA46
:1040C000A9F804202A8842F070022A80800716D0BE
:1040D0000C44E07800F0C00500F03F016078C007B4
:1040E00006D0C80801F007013268491C02B19047A8
:1040F0006078000703D5716809B1A80988470C9852
:1041000000F048FD002063E7940400202DE9FF4102
:10411000044603A800F0AAFEBDF80C00410CC3033E
:104120002F48008900F0030254F82250420700D5BE
:104130006D42C0F3C102860654F8222000D55242D7
:10414000C0F38116C00554F8264000D56442A5FB93
:104150000367E81700FB037005FB0100850045EAD3
:104160009670A2FB0367D51705FB037502FB01528E
:10417000950045EA9672A4FB0367E51705FB0373F8
:1041800004FB01318B0043EA9671030E8DF8003079
:10419000030C8DF80130030A8DF802308DF803000E
:1041A000100E8DF80400100C8DF80500100A8DF823
:1041B0000600080E8DF80800080C8DF80900080AA2
:1041C0008DF80A008DF807208DF80B106A460C2137
:1041D0004FF4257001F074FB04B0BDE8F0810000DD
:1041E0009404002030B5044613A285B007CA8DE8B8
:1041F00007004FF0FF35C82C16D8C820B0FBF4F1EB
:10420000491E080A8DF80C008DF80D1003AA022132
:1042100040F2162001F054FB30B96A460C2140F6FA
:10422000C12001F04DFB10B1284605B030BD054856
:1042300084810020F9E70000FEF2ABC4AAF1DFDFC1
:10424000BBAFDFDF94040020F8B53049098901F0E5
:10425000030250F822404A0700D56442C1F3C1026C
:104260008B0650F8222000D55242C1F3811350F83A
:104270002330C80500D55B42254984FB01408500F9
:1042800045EA947082FB0142A40F44EA820483FB56
:104290000121950F45EA8105010E8DF80010010CF2
:1042A0008DF80110010A8DF802108DF803006A469E
:1042B00004214FF4747001F003FB4FF0FF3688B90E
:1042C000200E8DF80000200C8DF80100200A8DF8DA
:1042D00002008DF803406A4604214FF4757001F026
:1042E000EFFA08B13046F8BD280E8DF80000280C12
:1042F0008DF80100280A8DF802008DF803506A46F7
:1043000004214FF4767001F0DBFAF8BD940400202C
:1043100009E3CA022DE9FF4104463CA004F003036F
:10432000006802903AA0006803903AA006683AA09C
:10433000056802A8C15C8DF80010C4F3C101425C9D
:104340008DF80120C4F38112805C8DF8020003A86F
:10435000C35C8DF80430415C8DF80510805C8DF8ED
:1043600006006A46032140F2264001F0A9FA4FF008
:10437000FF37E0BB01AA032140F22A4001F0A0FA76
:10438000A8BBCDE9006560070BD59DF8000040F0A3
:1043900001008DF800009DF8040040F001008DF848
:1043A0000400A0060BD59DF8010040F001008DF837
:1043B00001009DF8050040F001008DF80500E005C2
:1043C0000BD59DF8020040F001008DF802009DF829
:1043D000060040F001008DF806006A4603214FF404
:1043E000886001F06DFA10B901AA032100E004E031
:1043F00040F2314001F064FA18B1384604B0BDE82B
:10440000F081064804810020F8E700004CCD6C00E4
:104410000CC92C003656760026466600940400200F
:104420004FF47A7290FBF2F008B54843010E8DF814
:104430000010010C8DF80110010A8DF802108DF8A2
:1044400003006A4604214FF4AE7001F039FA08BD4A
:104450000521B0FBF1F008B5010A8DF800108DF8C8
:1044600001006A4602214FF4AD7001F029FA08BD3F
:104470000521B0FBF1F008B5010A8DF800108DF8A8
:1044800001006A4602214FF4AC7001F019FA08BD30
:1044900008B500218DF80010C10702D030218DF839
:1044A0000010810705D59DF8001041F00C018DF832
:1044B0000010400705D59DF8000040F003008DF87E
:1044C00000006A4601214FF4A47001F0F9F908BD1B
:1044D00008B560B1042800D90420401E8DF8000002
:1044E0006A46012140F24F1001F0EAF908BD0120AF
:1044F000F3E700002DE9FC41054640074FF0FF3689
:104500007CD0B1F5C86F79D8084602F0D7F93E499A
:1045100002F0BEF8074601A800F08AFC9DF80400EE
:10452000022806D004280DD008282ED0102865D1E6
:1045300034E00E21384602F076FB02F087F984B2AF
:10454000324907E00D21384602F06DFB02F07EF99A
:104550002F4984B2384602F0C5F902F077F9210AF2
:104560008DF8001080B28DF80140010A8DF802101C
:104570008DF80300E8076C4620D0224602214FF454
:10458000EA7001F09DF9C8BB11E00C21384602F039
:104590004AFB02F05BF984B21E49DBE70B21384687
:1045A00002F041FB02F052F984B21B49D2E7A21C8F
:1045B00002214FF4927001F083F9F8B9A8070DD5E4
:1045C0006A4602214FF4EC7001F07AF9B0B9A21CEE
:1045D00002214FF4947001F073F978B9680710D58F
:1045E0006A4602214FF4EE7001F06AF930B9A21C5C
:1045F00002214FF4967001F063F910B13046BDE826
:10460000FC810020FBE7000000004843000040461A
:104610000000C045000040450000C0440521B0FB3B
:10462000F1F008B5010A8DF800108DF801006A4616
:1046300002214FF4EF7001F043F908BD0521B0FBF2
:10464000F1F008B5010A8DF800108DF801006A46F6
:1046500002214FF4ED7001F033F908BD2DE9FE435E
:10466000064601AA04210D20FEF7BCF910B107206F
:10467000BDE8FE839DF804101C2000EAD1029DF8DD
:104680000710DFF87090C1F301131A438DF8002072
:104690009DF80520C1F3810300EAD2021A438DF888
:1046A00001209DF8062001F0030100EAD200084332
:1046B0000024114F8DF80200A0466D46285D10B110
:1046C00046F8249009E046F824800CE056F82400CF
:1046D000394602F007F946F82400285D401E10F024
:1046E000FF002855F2D1641CE4B2032CE6D300206D
:1046F000BEE700007B14AE3E1D5A843F2DE9FE4FFD
:1047000005460120DFF8C8928DF8000000268DF8DC
:104710000160D9F8000017460C46807C6A460221E9
:10472000FEF7BEF94FF0FF3A00287DD1C820FCF714
:1047300093FC8DF80060D9F80000B0464E46C07B6F
:104740006A460121FEF7ACF90028EED130686A46CE
:1047500001214079FEF7A4F90028E6D130686A46C5
:104760000121807CFEF79CF900285DD130686A4603
:104770000121C07DFEF794F9002855D130686A46C2
:1047800001210079FEF78CF900284DD14FF00C097A
:104790008DF8009030686A4601210079FEF780F9B3
:1047A00000287DD10F20FCF757FCB06A6A46012132
:1047B000407A8DF8000030688078FEF771F90028A3
:1047C0006ED1B06A6A460121007A8DF80000306827
:1047D0004078FEF765F9002862D1B06A807A0FB19F
:1047E00040F0E0008DF8000030686A4601218079D1
:1047F000FEF756F9C0B927B1B06AC07A40F0E000C0
:1048000000E018208DF8000030686A460121C07968
:10481000FEF746F940B917B1C820FCF71DFC40204F
:104820008DF80000306800E03AE000796A46012126
:10483000FEF736F9A0BB78208DF8000030686A4694
:1048400001214079FEF72CF950BB3220FCF704FC23
:104850008DF80080306847466A4640790121FEF7AE
:104860001FF9E8B93068B0466A46807A0221FEF73F
:10487000B9F8A8B9BDF80000AF6040BAB0FBF9F0D4
:104880006F602F60A76067602760C6B2002736E0C0
:10489000D8F800006A460C21C07AFEF7A3F810B1E0
:1048A0005046BDE8FE8FBDF80000236840BA02B252
:1048B000BDF802001A4440BA01B2BDF804002260FB
:1048C000626840BA11446160A16800B20844A06007
:1048D000BDF806002B6840BA02B2BDF80800BDF86A
:1048E0000A101A442A6040BA6A6800B2104468602C
:1048F00049BAA86809B208447F1CFFB2A860B74251
:10490000C6D328688322C117090441EA1041000474
:104910000023FBF759FC32460023FBF755FC2860C7
:1049200068688322C117090441EA1041000400238A
:10493000FBF74AFC32460023FBF746FC6860A86898
:104940008322C117090441EA104100040023FBF748
:104950003BFC32460023FBF737FCA86020684FF48D
:104960000065C117090441EA104100042A460023EA
:10497000FBF72AFC32460023FBF726FC2060606828
:104980002A46C117090441EA104100040023FBF73D
:104990001BFC32460023FBF717FC6060A0682A4628
:1049A000C117090441EA104100040023FBF70CFC85
:1049B00032460023FBF708FCA060002802DDA0F5CA
:1049C000803001E000F58030A060002069E7000041
:1049D000000000202DE9F84F8846814600256A46F0
:1049E00003210D20FDF7FEFF10B10720BDE8F88F71
:1049F0009DF80000002400F01F008DF800009DF8D5
:104A000001006FF00F0B00F01F008DF801009DF802
:104A100002006E4600F01F008DF802004FF0010A00
:104A200059F8241058F82400081A00D5404201F023
:104A30002DFF594602F0F7F80746305DC0B1134824
:104A400002E0134901F04EFF315D491E11F0FF01F4
:104A50003155F6D10146384601F01AFE4FF07E512D
:104A600002F00CF80B4920F00040884205DC07E01A
:104A700009483844B0F1D97F02D90AFA04F0054355
:104A8000641C032CCCDB2846B0E700000000C841C2
:104A900054E3853F295C0F3E0000E0BE00B50246AE
:104AA00000F00DF80346D01C00F009F843EAC003FB
:104AB000901D00F004F843EA801080B200BD90F928
:104AC0000010002902DD4FF00000704702DA4FF0BD
:104AD0000400704790F90110002902DD4FF0010039
:104AE000704702DA4FF00500704790F90200002885
:104AF00002DD4FF00200704702DA4FF00600704707
:104B00004FF0070070470000FCF778FEFEF79AFBB5
:104B1000FEF75AF8FEF71AF8FEF740F8FDF7D0FF57
:104B2000FEF7A6F8FEF7FAF8FEF7C2F81548FDF70B
:104B3000E7FA1548FBF714FE1448FBF711FEFEF7E1
:104B400059F90020FEF71EF90020FEF727F9FEF7BD
:104B5000DFF9FDF7EFFE00BF00F016F90028FBD1EA
:104B60000B4D4FF4807400BFFBF73CFDFDF7C2FE18
:104B7000FEF7F4F9FBF7B8FD21462846FCF76EFB7B
:104B8000F2E70000FC0500200405002034050020A9
:104B900000080140704700002DE9F041124C20F060
:104BA0000101002594F8240010B10020BDE8F08137
:104BB000A07A4FF0FF3668B10840277C2074884205
:104BC00000D0354641B1012000F0E2FE00F06EFB5E
:104BD00038B127743046E9E7207D00B1012000F0AC
:104BE000D7FE2846E2E70000000000202DE9F74F3D
:104BF0008EB00CA902A8CDE900010BAB03AA09A94C
:104C000007A8FFF7D1F918B1012011B0BDE8F08F66
:104C1000BDF80800C0057DD5039801F037FE6FF0A0
:104C20001D04214601F0FFFF8246049801F02EFE8C
:104C3000214601F0F8FF8146059801F027FE214644
:104C400001F0F1FF8046069801F020FE214601F0B8
:104C5000EAFF05460121504601F0E5FF06464146C0
:104C600001F040FE04464FF04041484601F03AFE54
:104C70000746294601F036FE214601F0A1FC01F06D
:104C800073FCFEF71DFD4FF0663B5A463D4B01F0AD
:104C900091F900F0CDFE0E9908600121404601F027
:104CA000C2FF4146009001F01DFE044638464946C9
:104CB00001F018FE214601F0E1FE4FF07E5101F0B7
:104CC0007FFC01F051FC07460C463046494601F096
:104CD00009FE06462946009801F004FE314601F01F
:104CE0006FFC01F041FC3A462346FEF731FF5A467D
:104CF000244B01F05FF900F09BFE0F9908602946F4
:104D0000084601F0EFFD07464146084601F0EAFD7E
:104D1000064600E034E04946084601F0E3FD04465B
:104D20005146084601F0DEFD214601F049FC3146BE
:104D300001F0A4FE394601F0A1FE01F015FC064683
:104D40000C462946504601F0CDFD054641464846F1
:104D500001F0C8FD294601F033FC012101F063FF99
:104D600001F002FC32462346FEF7F2FE5A46054B9E
:104D700001F020F900F05CFE10990860002044E783
:104D8000022042E766A64C4010B52748FCF77AFAA5
:104D900000F0F2F808B10A2010BD782000F038FDCC
:104DA00010F0FF0F01D0012010BD7820FFF7F4FEB6
:104DB00010F0FF0F01D0022010BD642000F0EAFCCB
:104DC00010F0FF0F01D0032010BDFFF7E3F810F043
:104DD000FF0F01D0042010BD1448FFF75FFEFFF75E
:104DE00099FA10F0FF0F01D0052010BD40F27310AA
:104DF000FEF7A8FF10F0FF0F01D0062010BD6420C1
:104E0000FFF7F0F910F0FF0F01D0072010BD00F000
:104E10007FFD08B1082010BD012000F0EBFB10F071
:104E2000FF00F8D0092010BDA80500202C000020AC
:104E30000D494A7A42B1012A08D0022A0FD0032A2A
:104E40000FD04FF0FF307047022200E004220270C2
:104E5000C97C11B11106C90D0170002070470822EC
:104E6000F5E71022F3E70000000000200F494A7A1E
:104E700042B1012A09D0022A11D0032A12D04FF0E0
:104E8000FF3070474FF4804201E041F69C7202808F
:104E9000C97C11B1C2F34E010180002070474FF46C
:104EA0008052F4E74FF40062F1E7000000000020B8
:104EB0000B49097A39B1012907D002290AD00329FF
:104EC0000BD0002103E0FA2101E04FF4FA710180D8
:104ED000002070474FF47A71F9E74FF4FA61F6E772
:104EE000000000200A49097A41B1012908D00229AD
:104EF0000AD003290AD04FF0FF307047054900E07F
:104F000005490160002070470449FAE70449F8E7C1
:104F100000000020000003430000834233330342BB
:104F2000333383410C49C97A072913D2DFE801F0F2
:104F30001204060A0C0E1000BC2100E06221018060
:104F4000002070472A21FAE71421F8E70A21F6E742
:104F50000521F4E70021F2E700000020054991F85F
:104F6000242012B14FF0FF307047C9890180002022
:104F700070470000000000202DE9FC41424C8020D9
:104F80008DF8000020686A460121807CFDF788FDCD
:104F90004FF0FF3700286FD16420FCF75DF8002543
:104FA0008DF8005020686A460121807CFDF778FD6D
:104FB000002861D120686A460621807DFDF712FD38
:104FC000002859D19DF805009DF80310C007400F37
:104FD00001F0010140EA41009DF801104FF0010687
:104FE00001F00101084304D001282FD002280ED07F
:104FF00042E020686A460121C078FDF7F3FCD8BB87
:105000009DF8000010F00F0036D004281ED0E57483
:10501000FF2004F80A0F4FF6FF7104F8020C04F8A1
:10502000010C6070A180A0712072A6702676657652
:10503000E572A572E56025616561A576E576A583D3
:105040004FF4FA6000F00EFBB0B901E0E674DFE760
:10505000022000F039FA78B92A2000F067FB58B92D
:10506000322000F097FB38B90020FFF795FD18B902
:10507000002000F05BFA10B13846BDE8FC8100204A
:1050800000F0C6FB0020F8E7000000202DE9FF4FEC
:10509000DFF88C80064685B098F8250015460F4647
:1050A0004FF0FF3998BB97B3002420E0301B102845
:1050B00000DD102080B283463A1901469246204610
:1050C00000F0FEFB18BB6A465946204600F0C6F8C1
:1050D000E8B950465A466946FBF79AF820B16FF096
:1050E000010009B0BDE8F08F04EB0B0084B2B442BC
:1050F000DCD3280A8DF810008DF81150D8F8000084
:10510000444604AA807E0221FDF7CAFC08B1484645
:10511000E7E7012084F825000898E0840020E0E714
:10512000000000202DE9F84304464FF0FF392828FD
:1051300040D80727264D00267CB1012000F0C6FA92
:1051400020208DF800004FF00108012C15D0052C0F
:1051500016D88DF8018005201DE0002000F0B6FA79
:105160008DF800608DF8017028686A460221807C05
:10517000FDF796FCF0B92E7527E08DF80160EAE79F
:10518000142C04D802208DF801000A2003E003202B
:105190008DF80100142000F0C9FA9DF801006A465C
:1051A00007EB80108DF8010028680221807CFDF754
:1051B00077FC10B14846BDE8F8830820A8722E732A
:1051C00085F814800020FFF7E7FC0020F3E70000DB
:1051D000000000202DE9F8431F4C0646174694F8BE
:1051E000240089464FF0FF3868B3A07A58B320688E
:1051F0006A460221807AFDF7F5FB20BBBDF800006E
:1052000045BAB54202D2002038701CE06068408880
:10521000B5EB500F10D920686A460121407CFDF79C
:10522000E1FB80B99DF80000C00605D500F03EF80E
:105230006FF00100BDE8F8832068F1B24A46C07AF9
:10524000FDF7D0FB08B14046F4E7B5FBF6F0401E91
:1052500038700020EEE7000000000020F8B51600CE
:105260000D464FF0FF371CD00F4CA17AC9B1010A8F
:105270008DF80010C0B28DF801006168284449899A
:1052800088420ED820686A460221007EFDF708FC9D
:1052900038B92068E9B23246407DFDF7A3FB00280B
:1052A00000D03846F8BD000000000020F8B5494C99
:1052B0004FF0FF36A07A00286CD000258DF8005002
:1052C00020686A460121C07BFDF7EAFB00287FD1F8
:1052D00020686A4601214079FDF7E2FB002877D17A
:1052E00020686A4601210079FDF7DAFB00286FD1BA
:1052F00094F8240098B30C208DF8000020686A46CA
:1053000001210079FDF7CCFB002861D13220FBF7A9
:10531000A3FEC0208DF80000A07AC00702D0E020D4
:105320008DF8000020686A4601210079FDF7B8FB7E
:1053300080BB607C18B102208DF8000001E08DF880
:10534000005020686A460121C07BFDF7A9FB08BB1D
:105350008DF8005020686A460121407934E0FFE76B
:1053600004208DF8000020686A4601210079FDF7CD
:1053700097FB78B9A07C70B9A07AC0070BD06020E9
:105380008DF8000020686A4601210079FDF788FB4E
:1053900000B902E01CE04020F2E73220FBF75CFE9F
:1053A000607C18B101208DF8000001E08DF80050FC
:1053B00020686A460121C07BFDF772FB40B9206876
:1053C000044A012140791032FDF76AFB002800D021
:1053D0003046F8BD000000202DE9F047394C8246E8
:1053E0008AB094F824000F4620B1002000F002F9A2
:1053F000012600E0002607A8FFF75AFD06A8FFF7E0
:1054000017FD09A8FFF78EFD08A8FFF7A7FD94F880
:105410000A9094F810800025002239465046FFF784
:105420006DF910B16D1C022DF6DB022D1AD000258E
:10543000012203A96846FFF761F910B16D1C022D26
:10544000F6DB022D0ED003A93846FEF7F9F8C7B2F5
:1054500069465046FFF7BEFA10F0FF0F4FF0000507
:1054600002D002E0002503E001250FB945F0020556
:10547000FF2020726072E0724FF6FF71E181A0722E
:10548000207401202073BDF81C0000F0EBF89DF89B
:10549000180000F019F8BDF8240000F047F9BDF835
:1054A000200000F077F9484600F0B2F94046FFF7D7
:1054B00073FB16B1012000F09DF80AB02846BDE844
:1054C000F08700000000002038B5174C4FF0FF3582
:1054D000A17A09B3022806D0042806D008280ED0E5
:1054E000102819D10DE0002000E008208DF8000000
:1054F000607A9DF80010B0EBD10F04D005E01020C9
:10550000F4E71820F2E7002038BD20686A46012140
:10551000C079FDF7C5FA08B1284638BD9DF80000EE
:10552000C0086072EFE7000000000020F8B5304CC2
:105530000546A07CA84201D10020F8BD2C484FF0C0
:10554000FF366A4600684FF00101007915B3FDF798
:1055500049FAA8BB9DF800006A4620F020008DF8AB
:105560000000206801210079FDF79AFA40BB032072
:10557000FBF772FD02208DF8000094F8220050B372
:10558000822026E020686A460121007DFDF788FA26
:10559000B0B92BE0FDF726FA90B9A07AC0079DF8C4
:1055A000000002D040F0200001E020F020008DF843
:1055B000000020686A4601210079FDF771FA08B100
:1055C0003046F8BD0320FBF747FD94F8220000B1F8
:1055D00080208DF8000094F823000028D2D09DF898
:1055E000000040F030008DF80000CBE7A574A3E781
:1055F0000000002038B51A4C94F8241081421BD0CA
:105600000025F0B194F82500C0B1002000F0C0F9E9
:105610000020FFF78BFFE08C00F0BCF88DF8005005
:105620006A4601212320FDF73BFA012084F824007B
:1056300000F0AEF9FFF73AFE002038BD4FF0FF3022
:1056400038BD002000F0A4F9207C8DF800006A46E7
:1056500001212320FDF724FA84F82450EAE7000012
:105660000000002038B5184C4FF0FF35A17A21B367
:10567000FA2809D0B0F5FA7F08D0B0F57A7F0FD0BC
:10568000B0F5FA6F19D10DE0002000E008208DF888
:105690000000207A9DF80010B0EBD10F04D005E097
:1056A0001020F4E71820F2E7002038BD20686A4691
:1056B00001218079FDF7F4F908B1284638BD9DF83D
:1056C0000000C0082072EFE70000002038B5164C3B
:1056D000054694F82300A84201D1002038BD0DB141
:1056E000302000E000208DF80000A07C28B19DF85B
:1056F000000040F002008DF8000094F8220028B16C
:105700009DF8000040F080008DF8000020686A4697
:105710000121007DFDF7C4F910B14FF0FF3038BD15
:1057200084F82350D9E700000000002038B5184C59
:105730004FF0FF35A17A21B3BC2801D3012010E03E
:10574000622801D302200CE02A2801D3032008E0BC
:10575000142801D3042004E00A2801D3052000E026
:1057600006208DF80000E07A9DF80010884201D1F3
:10577000002038BD20686A4601218078FDF790F945
:1057800008B1284638BD9DF80000E072F0E700003F
:1057900000000020F8B51D4D04464FF0FF37A87AF1
:1057A00038B395F8240020BB287D4FF47A7648B1B1
:1057B00064B1282C03D8E0B2FFF7B4FC24E0002049
:1057C000FFF7B0FC042C05D2042406E00020FFF70C
:1057D000A9FCF9E7B44200D93446B6FBF4F0401E08
:1057E0008DF8000028686A4601214078FDF758F9D5
:1057F00008B13846F8BD9DF80000401CB6FBF0F03B
:10580000E8814008FFF792FF0020F8BD000000206B
:10581000F8B5044610F0700F4FF0000601D00120DB
:1058200004E014B18DF8006002E040208DF8000023
:10583000224D6A4601212868807CFDF731F94FF03E
:10584000FF3750BB9DF8000020F0400028738DF812
:105850000060600602D404208DF80000A00605D484
:105860009DF8000040F002008DF80000E00605D42D
:105870009DF8000040F001008DF80000200705D4DD
:105880009DF8000040F038008DF8000028686A4656
:105890000121C07CFDF704F910B1AE723846F8BDA5
:1058A00024B1082C02D00020FFF710FFAC722E7537
:1058B0003220FBF7D1FB0020F8BD000000000020E3
:1058C000F8B516000D464FF0FF371CD00F4CA17AEB
:1058D000C9B1010A8DF80010C0B28DF801006168ED
:1058E0002844498988420ED820686A460221007EF1
:1058F000FDF7D6F838B92068E9B23246407DFDF7A9
:10590000CFF8002800D03846F8BD00000000002085
:1059100010B588B0694604A8FFF75EFD032802D0E1
:10592000012008B010BD07A8FFF7DCFA049800F0CA
:10593000ADFF07990C4600F0D5FF00F06BFF049017
:10594000059800F0A3FF214600F0CCFF00F062FFB5
:105950000590069800F09AFF214600F0C3FF00F082
:1059600059FF069004A8FEF76FFC03A8FFF77EFA24
:10597000BDF80C0000994143009101994143019108
:105980000299414368460291FEF7C0FB0020C8E738
:1059900038B5134C0022214694F824300968551E6E
:1059A0004BB170B1022010E0C87B6A460121FDF7BF
:1059B00077F868B90EE0A37A53B110B1607C60B992
:1059C00002E08DF80020EFE701208DF80000EBE702
:1059D000284638BD9DF800006074002038BD0000E6
:1059E000000000202DE9F04106460F4600F0ECFBD8
:1059F000041E0D4618BF0120284320F00040C0F1CE
:105A00007F6000F1E040C00F0ED0301C18BF0120B5
:105A1000384320F00040C0F17F6000F1E040C00F4B
:105A200004BF0120FAF7CEFC20462946BDE8F081EC
:105A300021F00042A2F16052B2F5801F01F0004354
:105A400028BFD2F17F6C0BD95FEA001C43EAC20287
:105A500042EB507018BF704728BF20F0010070471C
:105A6000B2F5801FBCBF184670474FEA410C1CF5C9
:105A7000001F02D2084600F0FCBF70B500F044FBE6
:105A800000000089FFF7F6BF4FF00040A0F580004E
:105A90007047000010B591EA030F48BF83F0004340
:105AA00000F18084841A71EB030C05D2121943EBC8
:105AB0000C03001B61EB0C01DFF824E14FEA1154E9
:105AC000A4EB135C1EEA430F18BF9EEA445F73D039
:105AD00023EA0E03DCF1200E21EA045143F4801383
